:020000040000fa
:080000000002040000000000f2
:020000040000fa
:0400080034080000b8
:020000040000fa
:04000c0034080000b4
:020000040000fa
:0400100034080000b0
:020000040000fa
:0400140034080000ac
:020000040000fa
:0400180034080000a8
:020000040000fa
:04001c0034080000a4
:020000040000fa
:0400200034080000a0
:020000040000fa
:04002400340800009c
:020000040000fa
:040028003408000098
:020000040000fa
:04002c00f6030000d7
:020000040000fa
:040030003408000090
:020000040000fa
:04003400340800008c
:020000040000fa
:040038003408000088
:020000040000fa
:04003c003408000084
:020000040000fa
:040040000e040000aa
:020000040000fa
:04004400340800007c
:020000040000fa
:040048003408000078
:020000040000fa
:04004c003408000074
:020000040000fa
:040050003408000070
:020000040000fa
:04005400340800006c
:020000040000fa
:040058003408000068
:020000040000fa
:04005c003408000064
:020000040000fa
:040060003408000060
:020000040000fa
:04006400340800005c
:020000040000fa
:040068003408000058
:020000040000fa
:04006c003408000054
:020000040000fa
:040070003408000050
:020000040000fa
:04007400340800004c
:020000040000fa
:040078003408000048
:020000040000fa
:04007c003408000044
:020000040000fa
:040080003408000040
:020000040000fa
:04008400340800003c
:020000040000fa
:040088003408000038
:020000040000fa
:04008c003408000034
:020000040000fa
:040090003408000030
:020000040000fa
:04009400340800002c
:020000040000fa
:040098003408000028
:020000040000fa
:04009c003408000024
:020000040000fa
:0400a0003408000020
:020000040000fa
:0400a400fa0200005c
:020000040000fa
:0400a8003408000018
:020000040000fa
:0400ac003408000014
:020000040000fa
:0400b0003408000010
:020000040000fa
:0400b400340800000c
:020000040000fa
:0400b8003408000008
:020000040000fa
:0400bc003408000004
:020000040000fa
:0400c0003408000000
:020000040000fa
:0400c40034080000fc
:020000040000fa
:0400c80034080000f8
:020000040000fa
:0400cc0034080000f4
:020000040000fa
:0400d00034080000f0
:020000040000fa
:0400d40034080000ec
:020000040000fa
:0400d80034080000e8
:020000040000fa
:0400dc0034080000e4
:020000040000fa
:0400e00034080000e0
:020000040000fa
:0400e40034080000dc
:020000040000fa
:0400e80034080000d8
:020000040000fa
:0400ec0034080000d4
:020000040000fa
:0400f00034080000d0
:020000040000fa
:0400f40034080000cc
:020000040000fa
:0400f80034080000c8
:020000040000fa
:0400fc0034080000c4
:020000040000fa
:0401000034080000bf
:020000040000fa
:0401040034080000bb
:020000040000fa
:0401080034080000b7
:020000040000fa
:04010c0034080000b3
:020000040000fa
:0401100034080000af
:020000040000fa
:0401140034080000ab
:020000040000fa
:0401180034080000a7
:020000040000fa
:04011c0034080000a3
:020000040000fa
:04012000340800009f
:020000040000fa
:04012400340800009b
:020000040000fa
:040128003408000097
:020000040000fa
:04012c003408000093
:020000040000fa
:04013000340800008f
:020000040000fa
:04013400340800008b
:020000040000fa
:040138003408000087
:020000040000fa
:04013c003408000083
:020000040000fa
:04014000340800007f
:020000040000fa
:04014400340800007b
:020000040000fa
:040148003408000077
:020000040000fa
:04014c003408000073
:020000040000fa
:04015000340800006f
:020000040000fa
:04015400340800006b
:020000040000fa
:040158003408000067
:020000040000fa
:04015c003408000063
:020000040000fa
:04016000340800005f
:020000040000fa
:04016400340800005b
:020000040000fa
:040168003408000057
:020000040000fa
:04016c003408000053
:020000040000fa
:04017000340800004f
:020000040000fa
:04017400340800004b
:020000040000fa
:040178003408000047
:020000040000fa
:04017c003408000043
:020000040000fa
:04018000340800003f
:020000040000fa
:04018400340800003b
:020000040000fa
:040188003408000037
:020000040000fa
:04018c003408000033
:020000040000fa
:04019000a2040000c5
:020000040000fa
:04019400340800002b
:020000040000fa
:040198003408000027
:020000040000fa
:04019c003408000023
:020000040000fa
:0401a000340800001f
:020000040000fa
:0401a400340800001b
:020000040000fa
:0401a8003408000017
:020000040000fa
:0401ac003408000013
:020000040000fa
:0401b000340800000f
:020000040000fa
:0401b400340800000b
:020000040000fa
:0401b8003408000007
:020000040000fa
:0401bc003408000003
:020000040000fa
:0401c00034080000ff
:020000040000fa
:0401c40034080000fb
:020000040000fa
:0401c80034080000f7
:020000040000fa
:0401cc0034080000f3
:020000040000fa
:0401d00034080000ef
:020000040000fa
:0401d40034080000eb
:020000040000fa
:0401d80034080000e7
:020000040000fa
:0401dc0034080000e3
:020000040000fa
:0401e00034080000df
:020000040000fa
:0401e40034080000db
:020000040000fa
:0401e80034080000d7
:020000040000fa
:0401ec0034080000d3
:020000040000fa
:0401f00034080000cf
:020000040000fa
:0401f40034080000cb
:020000040000fa
:0401f80034080000c7
:020000040000fa
:0401fc0034080000c3
:020000040000fa
:0402000034080000be
:020000040000fa
:0402040034080000ba
:020000040000fa
:0402080034080000b6
:020000040000fa
:04020c0034080000b2
:020000040000fa
:0402100034080000ae
:020000040000fa
:0402140034080000aa
:020000040000fa
:0402180034080000a6
:020000040000fa
:04021c0034080000a2
:020000040000fa
:04022000340800009e
:020000040000fa
:04022400340800009a
:020000040000fa
:040228003408000096
:020000040000fa
:04022c003408000092
:020000040000fa
:04023000340800008e
:020000040000fa
:04023400340800008a
:020000040000fa
:040238003408000086
:020000040000fa
:04023c003408000082
:020000040000fa
:04024000340800007e
:020000040000fa
:04024400340800007a
:020000040000fa
:040248003408000076
:020000040000fa
:04024c003408000072
:020000040000fa
:04025000340800006e
:020000040000fa
:04025400340800006a
:020000040000fa
:040258003408000066
:020000040000fa
:04025c003408000062
:020000040000fa
:04026000340800005e
:020000040000fa
:04026400340800005a
:020000040000fa
:040268003408000056
:020000040000fa
:04026c003408000052
:020000040000fa
:04027000340800004e
:020000040000fa
:04027400340800004a
:020000040000fa
:040278003408000046
:020000040000fa
:04027c003408000042
:020000040000fa
:04028000340800003e
:020000040000fa
:04028400340800003a
:020000040000fa
:040288003408000036
:020000040000fa
:04028c003408000032
:020000040000fa
:04029000340800002e
:020000040000fa
:04029400340800002a
:020000040000fa
:040298003408000026
:020000040000fa
:04029c003408000022
:020000040000fa
:0402a000340800001e
:020000040000fa
:0402a400340800001a
:020000040000fa
:0402a8003408000016
:020000040000fa
:0402ac003408000012
:020000040000fa
:0402b000340800000e
:020000040000fa
:0402b400340800000a
:020000040000fa
:0402b8003408000006
:020000040000fa
:0402bc003408000002
:020000040000fa
:0402c00034080000fe
:020000040000fa
:0402c40034080000fa
:020000040000fa
:0402c80034080000f6
:020000040000fa
:0402cc0034080000f2
:020000040000fa
:0402d00034080000ee
:020000040000fa
:0402d40034080000ea
:020000040000fa
:0402d80034080000e6
:020000040000fa
:0402dc0034080000e2
:020000040000fa
:0402e00034080000de
:020000040000fa
:0402e40034080000da
:020000040000fa
:0402e80034080000d6
:020000040000fa
:0402ec0034080000d2
:020000040000fa
:0402f00034080000ce
:020000040000fa
:0402f40034080000ca
:020000040000fa
:0402f80034080000c6
:020000040000fa
:0402fc0034080000c2
:020000040000fa
:0403000034080000bd
:020000040000fa
:0403040034080000b9
:020000040000fa
:0403080034080000b5
:020000040000fa
:04030c0034080000b1
:020000040000fa
:0403100034080000ad
:020000040000fa
:0403140034080000a9
:020000040000fa
:0403180034080000a5
:020000040000fa
:04031c0034080000a1
:020000040000fa
:04032000340800009d
:020000040000fa
:040324003408000099
:020000040000fa
:040328003408000095
:020000040000fa
:04032c003408000091
:020000040000fa
:100400006f7821000eff26000e018800000000001a
:10041000000020000000e000020032000001200087
:100420002002880014000700200307000000e000fd
:1004300003003a00004c26000100200002003700b3
:100440000000200001002000810f70000100320038
:100450000f000700000020000000e0000200320052
:100460000000020000000000e4660200000000003e
:100470000040da000000fe00001c20000000e00048
:1004800002003200002020009001880000000600d9
:10049000a1028800800478000000eb001f003700f4
:1004a000e284440054a0b4009905ba00e2844400f8
:1004b00054a0b4009906ba00e284440054a0b400e9
:1004c0000006eb00476fde00fd07b200ae018800ba
:1004d000636ce10003003a000ad801000000eb0061
:1004e0000e003700606ce10008003a00004deb00a0
:1004f0000a05e800020039003420ec000af0a000f0
:100500008b05e900f9ff3e00040037006168e10057
:10051000010032000086eb000b00070019c7ba008b
:100520001905ba000e04e00003003a000a00e000da
:10053000dbff3a0000000600fe07b200ae028800b2
:100540008a047800f5ff37000cd0a300e20f4d00bd
:100550001c00390089027800354dba000a05e80010
:10056000020039003420ec000af0a0008b05e900fd
:100570000f003200254dba000a05e80002003900dc
:100580003420ec000af0a0008b05e90008003200de
:100590000c00e0000600320015cdba000a05e800a4
:1005a000020039003420ec000af0a0008b05e900bd
:1005b0008984e80054a0b4000b00e000e2ff3a0098
:1005c000000006009902ba00055d78008b05e9007d
:1005d000f7ff3200c82ade00055d78008b05e900d0
:1005e000f3ff32000c00e000f1ff320019ddba0029
:1005f000eeff370000a0fe000400fa006f00370095
:10060000e031800030b9880030b98000000000007f
:1006100020009000fb800a000000000010479800b6
:100620001e4090000080fb00e20f50001f003200cf
:10063000e20f500003003c00e10f500006003200c2
:1006400059003700e30f50002c003200e40f500037
:100650003e003200540037000040eb00004f7800ad
:100660000e003700000000001e80fb0031b9800042
:1006700068004000808040001e80fb0000000000f9
:10068000914078001e4fe800020220000001410066
:10069000801a210000004100014878001e407800c7
:1006a000e74f5000efff36003f0037000040eb00ff
:1006b000004f78000d0037001e80fb0031b980002c
:1006c00068004000808040001e80fb0000000000a9
:1006d000914078001e4fe800820220000001410096
:1006e000801a210000004100014878001e40780077
:1006f000e74f5000f0ff36002b0037000040eb00c2
:10070000004f78000d0037001e80fb0031b98000db
:1007100068004000808040001e80fb000000000058
:10072000914078001e4fe8000203200000014100c4
:10073000801a210000004100014878001e40780026
:10074000e74f5000f0ff36001700370031b9800046
:100750000040eb000149900022479800004f7800cc
:100760000e0037001e80fb0031b980006c00400095
:10077000008040001e81fb000000000090407800d7
:100780001e4fe800ae419000801e21008381fb00d7
:100790000281410000004100014878001e407800bd
:1007a000e34f5000efff36003506a80000000000c0
:1007b00000000000e0c1b30071f7b700c031800055
:1007c000610060000000e0008dff3a0003e8a9002e
:1007d0000080fa00801f7800000e20004220b70041
:1007e0004f0078000080fe000040060000a0fe00e0
:1007f0000000fa0000c0eb00a6f1b7000028a90035
:100800000080fa00801f7800000e20004220b70010
:100810004f0078000080fe000040060000a0fe00af
:10082000849fbe000c00fa006011b8006000b800a0
:10083000e571800004402000028fbe002007980070
:1008400031079800048062000000e00002003a00d6
:100850007777ef000200370010c0b30077f7b700da
:10086000e04a8000610060000000e0000700320004
:10087000814b8000904b80006109b8008000eb0044
:10088000028fbe002007980031079800e04a8000e0
:10089000610060000000e00008003200814b800031
:1008a000904b80006109b8008000eb00420798007f
:1008b0005307980040079800510798002e009000b9
:1008c000be00900014c0b300c000dd000000200096
:1008d0003e014000ae8148000200be0090b9880091
:1008e000a1b9880092b98000a3b98000b0b9800096
:1008f000c1b980000000510081805900d0b9880042
:10090000e1b9880090b98000a1b98000b0b9880031
:10091000c1b988008440780063772100814978005c
:1009200000c8a9000080fa00801f7800000e200097
:100930004220b7004f0078004f02be000080fe004a
:100940000040060000a0fe00849fbe00869fbe00ff
:100950000000fa007ad7bf000080fb00e40f5000cf
:10096000a6003200e40f500007003c00e20f5000e8
:100970003e003200e20f50006e003c00e10f5000dc
:100980000a003200ac013700e60f500007013200c8
:10099000e60f5000d3003500e70f5000350132005c
:1009a000e80f500065013200a3013700906080001d
:1009b000f13f20004201de00f03f20008100610095
:1009c000f53f2000c1aa8800f43f2000122cef0060
:1009d000f33f2000a1608000f23f2000420bde00c8
:1009e000f13f20000003630020c0b300b6a98800d7
:1009f000142cef00f66080004233de0085026300b5
:100a000065aa88001e2cef0065aa800035aa880020
:100a100025618000c22ade000482620044ab8800a7
:100a2000242cef00346180004222de00830162004a
:100a3000e3a98800262cef0043618000c219de0084
:100a400002816100d2a98800282cef007261800029
:100a50004211de0081006100c1a988002e2cef0048
:100a60007af7b70008cba8007301370090608000c8
:100a7000f13f20004201de00f03f200081006100d4
:100a8000f53f2000d1aa8800f43f2000122cef008f
:100a9000f33f2000a1608000f23f2000420bde0007
:100aa000f13f20000003630030c0b300b6a9880006
:100ab000142cef00f66080004233de0085026300f4
:100ac00065aa88001e2cef0036aa800065aa800067
:100ad0008502430035aa880025618000c22ade0015
:100ae0000482620044ab8800242cef003461800053
:100af0004222de0083016200e3a98800262cef0079
:100b000043618000c219de0002816100d2a9880021
:100b1000282cef00726180004211de00810061002c
:100b2000c1a988002e2cef007af7b70008cba800e7
:100b30004101370090608000f13f20004201de005b
:100b4000f03f200081006100f53f2000e1aa88000d
:100b5000f43f2000122cef00f33f2000a160800042
:100b6000f23f2000420bde00f13f20000003630053
:100b700040c0b300b6a98800142cef00f6608000d6
:100b80004233de008502630065aa88001e2cef0058
:100b900036aa800065aa80008502430035aa880035
:100ba00025618000c22ade000482620044ab880016
:100bb000242cef00346180004222de0083016200b9
:100bc000e3a98800262cef0043618000c219de00f3
:100bd00002816100d2a98800282cef007261800098
:100be0004211de0081006100c1a988002e2cef00b7
:100bf0007af7b70008cba8000f013700906080009b
:100c0000f13f20004201de00f03f20008100610042
:100c1000f53f2000f1aa8800f43f2000122cef00dd
:100c2000f33f2000a1608000f23f2000420bde0075
:100c3000f13f20000003630050c0b300b6a9880054
:100c4000142cef00f66080004233de008502630062
:100c500065aa88001e2cef0036aa800065aa8000d5
:100c60008502430035aa880025618000c22ade0083
:100c70000482620044ab8800242cef0034618000c1
:100c80004222de0083016200e3a98800262cef00e7
:100c900043618000c219de0002816100d2a9880090
:100ca000282cef00726180004211de00810061009b
:100cb000c1a988002e2cef00c1aa800081aa88005b
:100cc000d1aa800091aa8800e1aa8000a1aa880088
:100cd000f1aa8000b1aa88007af7b7006c75ef001e
:100ce000d500370090608000f13f20004201de0017
:100cf000f03f200081006100f53f2000c1aa88007c
:100d0000f43f2000122cef00f33f2000a160800090
:100d1000f23f2000420bde00f13f200000036300a1
:100d200060c0b300b6a98800142cef00f660800004
:100d30004233de008502630065aa88001e2cef00a6
:100d400036aa800065aa80008502430035aa880083
:100d500025618000c22ade000482620044ab880064
:100d6000242cef00346180004222de008301620007
:100d7000e3a98800262cef0043618000c219de0041
:100d800002816100d2a98800282cef0072618000e6
:100d90004211de0081006100c1a988002e2cef0005
:100da0007af7b70008cba800a30037009060800056
:100db000f13f20004201de00f03f20008100610091
:100dc000f53f2000d1aa8800f43f2000122cef004c
:100dd000f33f2000a1608000f23f2000420bde00c4
:100de000f13f20000003630070c0b300b6a9880083
:100df000142cef00f66080004233de0085026300b1
:100e000065aa88001e2cef0036aa800065aa800023
:100e10008502430035aa880025618000c22ade00d1
:100e20000482620044ab8800242cef00346180000f
:100e30004222de0083016200e3a98800262cef0035
:100e400043618000c219de0002816100d2a98800de
:100e5000282cef00726180004211de0081006100e9
:100e6000c1a988002e2cef007af7b70008cba800a4
:100e70007100370090608000f13f20004201de00e9
:100e8000f03f200081006100f53f2000e1aa8800ca
:100e9000f43f2000122cef00f33f2000a1608000ff
:100ea000f23f2000420bde00f13f20000003630010
:100eb00080c0b300b6a98800142cef00f660800053
:100ec0004233de008502630065aa88001e2cef0015
:100ed00036aa800065aa80008502430035aa8800f2
:100ee00025618000c22ade000482620044ab8800d3
:100ef000242cef00346180004222de008301620076
:100f0000e3a98800262cef0043618000c219de00af
:100f100002816100d2a98800282cef007261800054
:100f20004211de0081006100c1a988002e2cef0073
:100f30007af7b70008cba8003f0037009060800028
:100f4000f13f20004201de00f03f200081006100ff
:100f5000f63f2000f1aa8800f53f2000122cef0098
:100f6000f43f2000a1608000f33f2000c208de00b3
:100f7000f23f200000806000f13f2000b0a988000f
:100f800010c0b300142cef00f7608000c23bde00fd
:100f90000683630066aa88001e2cef0037aa800033
:100fa00066aa80000683430036aa88002661800076
:100fb0004233de008502630045ab8800242cef003d
:100fc00035618000c22ade0004826200e4a9880044
:100fd000262cef00446180004222de008301620083
:100fe000d3a98800282cef0073618000c219de00ad
:100ff00002816100c2a988002e2cef00c2aa8000e5
:1010000082aa8800d2aa800092aa8800e2aa800060
:10101000a2aa8800f2aa8000b2aa880032aa8000a0
:101020004311de008100610041aa88004635ef00cf
:101030007af7b7006c75ef001a77ef000d88a900fa
:101040000b48a9000080fa00801f7800000e2000e5
:101050004220b7004f0078004f03be004f02be0091
:101060000080fe000040060000a0fe003600f800f0
:10107000849fbe00869fbe000000fa00c8c8bf0063
:10108000203007000080fa00801f7800000e20004a
:101090004220b7004f0078004f03be004f02be0051
:1010a0003600f9000080fe00004006000000050048
:1010b0006022b800060220000000d0008180d2002b
:1010c0000482d2008582d2000000a00002025200f9
:1010d00083825a00030031000202420083824a00e8
:1010e0000000a1000603e900f3ff3a00000006003b
:020000040000fa
:1010f00000f00000f0f0000000f0000000f0000040
:1011000000f0000000f0000000f0000000f000001f
:1011100000f00000f0f000000000000000f000000f
:1011200000000000f0f0000000f0000000f00000ff
:101130000000000000f000000000000000f00000cf
:1011400000f00000f0f000000000000000f00000df
:1011500000000000f000000000f0000000000000af
:1011600000f00000f0f0000000f00000f0f00000df
:101170000000000000f0000000f00000f0f00000af
:101180000000000000f0000000f00000f0f000009f
:1011900000f000000000000000f0000000f000007f
:1011a00000f00000f0f000000000000000f000007f
:1011b0000000000000f0000000f00000f0f000006f
:1011c00000f000000000000000f00000f0f000005f
:1011d0000000000000f0000000f00000f0f000004f
:1011e00000000000f0f0000000f00000000000002f
:1011f00000f00000f0f0000000f0000000f000003f
:1012000000f00000f0f0000000f00000f0f000003e
:101210000000000000f0000000000000f0000000ee
:1012200000f000000000000000f0000000000000de
:1012300000f00000f0f0000000f0000000f00000fe
:1012400000f00000f0f0000000f0000000f00000ee
:1012500000f00000f0f0000000f00000f0f00000ee
:1012600000f0000000f0000000f00000f0f00000ce
:101270000000000000f0000000f00000f0f00000ae
:1012800000000000f000000000f0000000f000008e
:1012900000f00000f0f0000000f0000000f000009e
:1012a00000f0000000f0000000f00000f00000007e
:1012b00000f0000000f0000000f00000f00000006e
:1012c00000f0000000f0000000f00000f00000005e
:1012d00000000000f0f0000000f00000000000003e
:1012e00000f000000000000000f00000000000001e
:1012f00000000000f0f0000000f00000f00000002e
:1013000000f0000000f0000000f0000000f000001d
:1013100000f0000000f0000000f00000f00000000d
:1013200000f00000f0f0000000f0000000000000fd
:1013300000f00000f0f0000000f0000000000000ed
:1013400000f00000f0f0000000f00000f0f00000fd
:1013500000f000000000000000f00000f0f00000cd
:1013600000f000000000000000f00000000000009d
:10137000010000000200000004000000080000005e
:10138000100000002000000040000000800000006d
:10139000000100000002000000040000000800003e
:1013a000001000000020000000400000008000004d
:1013b000feff0000fdff0000fbff0000f7ff000044
:1013c000efff0000dfff0000bfff00007fff000015
:1013d000fffe0000fffd0000fffb0000fff7000024
:1013e000ffef0000ffdf0000ffbf0000ff7f0000f5
:1013f00000000000000000000000000000000000ed
:1014000000000000000000000000000000000000dc
:1014100000000000000000000000000000000000cc
:1014200000000000000000000000000000000000bc
:10143000ffff0000ffff0000ffff0000ffff0000b4
:10144000ffff0000ffff0000ffff0000ffff0000a4
:10145000ffff0000ffff0000ffff0000ffff000094
:10146000ffff0000ffff0000ffff0000ffff000084
:020000040000fa
:101470000200fa00470037008031800020b9880060
:1014800020b9800000000000200090006f00600084
:10149000e20f50000a003a0021b9800020b9800014
:1014a0008148900081417800a25d210003497800c5
:1014b00000000000104a9000044f78001700370029
:1014c00020b9800000000000200090006f00600044
:1014d000e80f500011003a000040eb00004f780088
:1014e0000b0037001e80fb0021b98000680040001f
:1014f000008040001e81fb0000000000904078004a
:101500001e4fe800c019210000004100014878008a
:101510001e407800e74f5000f2ff3600f11921001d
:101520000000000091407800a0d1bf00efc0600033
:1015300081417800e25c2100034978000043b20059
:10154000e25c21000000000012417800c119210076
:1015500000000000914078008180fb000041710094
:10156000000420002906a80082417800e45c2100e4
:10157000034a7800008060000000e00001003200b3
:101580009e0107000000000000000000e0c1b30061
:1015900071f7b70060318000610060000000e0007a
:1015a000b5ff3a000080fa00000006000400fa00cf
:1015b00000318000610060000000e0004d0032005a
:1015c00021318000408b80000008b00011b98800f4
:1015d000c300dd0010b9800011079800f17f2000e2
:1015e0001e01900081006100a0010a0010000000af
:1015f00010b98000f27f2000900190001002780066
:1016000001802f00020162008180610002087800e1
:1016100011009800f17f2e00100190008100610000
:101620001100980010b9800001ff2f0020019000e8
:10163000810061000130a0002100980010b98000f5
:101640008000eb00200190000240a10022009800e1
:1016500010b9800000000000200190000250a1009d
:101660002200980010b980000000000020019000c6
:101670000260a1002200980010b980000000000064
:10168000200190000270a10022009800010f780054
:1016900009003700006421009e0040001e01780010
:1016a0006800410012b980009140780000004100bc
:1016b000014878001e0fe800000000001e007800be
:1016c000e70f5000f3ff3600e230800000302000ca
:1016d000e1c1b30002017000a0c0b300e230880095
:1016e00001417800e3762100824978006ff7b70066
:1016f0001e77ef000080fa00000006000400fa00e8
:1017000000318000610060000000e000d70032007e
:10171000408b80000008b0004300dd00000fe800af
:1017200020318000f17f20009e80600010b9880089
:1017300010b98000a0010a001000000010b980005c
:10174000f27f2000900190001002780001802f00ad
:101750000201620081806100020878001100980097
:10176000f17f2e00100190008100610011009800af
:1017700010b9800001ff2f0020019000810061005e
:101780000130a0002100980010b980000000000086
:10179000a00090000140a1002100980010b9800035
:1017a00000000000a00090000150a100210098005e
:1017b00010b9800000000000a00090000160a100ae
:1017c0002100980010b9800000000000a0009000e7
:1017d0000170a100210098009fd4bf000004e00028
:1017e0000d003a0010b980008040eb008041eb0012
:1017f000014898000041eb0010b980008040eb00e8
:101800001348980010b980002248980010b9800051
:1018100031489800410037009fd4bf00e24f50008c
:1018200013003e0010b9800091a08000c808de00bf
:10183000814078000148980010b9800091a0800094
:10184000814078001148980010b9800081a0800084
:10185000c808de00814078002148980010b9800057
:1018600081a0800081407800314898002b0037002b
:101870009fd4bf00e64f500013003e0010b9800017
:10188000a1a08000c808de008140780001489800cf
:1018900010b98000a1a08000814078001148980014
:1018a00010b9800091a08000c808de008140780057
:1018b0002148980010b9800091a0800081407800f4
:1018c00031489800150037009fd4bf00e74f500003
:1018d00012003a0010b98000b1a08000c808de00f4
:1018e000814078000148980010b98000b1a08000c4
:1018f000814078001148980010b9800081a08000d4
:10190000c808de00814078002148980010b98000a6
:1019100081a08000814078003148980011b9800092
:1019200002a18000000022004811de000241780080
:10193000c248980011b9800002a1800002417800dd
:10194000d248980011718000008060000000e00023
:1019500019003a0090ab8000410620006101b800f8
:1019600040062000819ab9000010b800e013b900c9
:101970008602780092052000030020000502420044
:101980000102420084007800c9fd0700000f7800c2
:1019900010b980009e007800c808de008140780001
:1019a0006148980010b980009e007800814078005e
:1019b000714898001800370090ab80004106200065
:1019c0006101b80040062000819ab9000010b800fb
:1019d000e013b90086027800922a2000030020005c
:1019e000050242000102420084007800b0fd0700b9
:1019f000000f780010b980009e007800c808de0053
:101a0000814078006148980010b980009e007800fd
:101a10008140780071489800e1308000003020005b
:101a200001007000e0308800b8d1bf000080fb00ea
:101a3000100798001e009000e40f500008003600c8
:101a40009e00900020032000808f500004003e0084
:101a50001e0090000040780070f7b70002003700c9
:101a6000e0c1b30070f7b7001f77ef000080fa0005
:101a7000000006000000fa0001162100000000002e
:101a8000914078006fd7bf008140e8008141780025
:101a900002162100034978000004e0000300320030
:101aa0006fd7bf000040e9006ff7b7006fd7bf00e6
:101ab0000004e00028003a00b1722100000000009c
:101ac0009140780041d6bf0080cf50000c003a0012
:101ad000c1722100000000009140780042d6bf0092
:101ae00080cf500006003a00d172210000000000b3
:101af0009140780043d6bf0080cf500016003200de
:101b000014c0b300a3c0b3001264210000000000a1
:101b1000124178002164210000000000914078000b
:101b200043d6bf0004437800e5712100864a78005f
:101b300083427800f4762100054a780082417800db
:101b4000b6722100034b780081427800c4722100f4
:101b5000054a78002df7b70046d7bf00e14f500087
:101b600019003a006ed7bf000004e0000300320005
:101b70006ed7bf000040e9006ef7b7006ed7bf0018
:101b80000004e00002003a0010c0b3001ef7b700e6
:101b900065d1bf00e14f50000b003a0070d7bf0085
:101ba0000004e0000300320070d7bf000040e900ed
:101bb00070f7b70070d7bf000004e00002003a00e1
:101bc00010c0b3001ff7b7001ed7bf000004e0002d
:101bd00004003a001fd7bf00e14f500001003a0057
:101be000c6fe07001ed7bf00e14f500001003a00bb
:101bf0006efe07000080fa00000006000200fa00f6
:101c00008000eb0028d7bf00010f78000080fb00a8
:101c10000000e00003003200e10f50001a00320023
:101c20006800370001642100000000009140780046
:101c3000000420008180fb00008060000000e000c4
:101c40005d003a0040d6bf008000eb000064a000b9
:101c5000010f780040f6b70005003700801a210018
:101c60001e0040001e0fe8008040eb000148780095
:101c70001e007800ff0f5000f8ff360010c0b300c0
:101c800028f7b7004f003700c119210000000000fd
:101c900091407800000420008180fb0000806000fb
:101ca0000000e00045003200016421000000000057
:101cb00091407800000420008180fb0000806000db
:101cc0000000e0003e003200a1d1bf00eb4f500009
:101cd00013003e00a1d1bf000080fb00000f780080
:101ce000231a210000000000934178001e007800b4
:101cf00000004000000f7800801a21001e01e8005b
:101d00001e004000311a21000000000091407800c0
:101d100003487800801a2100000041000148780043
:101d2000a1d1bf00eb4f500026003a0040d6bf00c3
:101d30002877ef000064a10040f6b70010c0b300a0
:101d4000a12b0700e11d2100000000009140780058
:101d500000b988008180fb00dfd1bf004809dd00a9
:101d60008080fb0000b9800081004100808f50001e
:101d700001003200d7b5a8001400070020c0b3004e
:101d8000912b070000b9880000b9800001b98000dc
:101d90004800de00814078000040780081417800f2
:101da000d25d210003497800dcf5b7003807070051
:101db000ccd5a8000300370002003700010037002f
:101dc000000037000080fa00000006000600fa005c
:101dd0008040eb000040eb005147980040479800de
:101de000090037004e409000ce4090008140e8004e
:101df000414798000081fb00404221008040eb00f9
:101e00000000410001487800ce40900030c8b30087
:101e100080cf5000f3ff3600dad1bf006f40600082
:101e2000504798005e409000e14f5000cd023a00cc
:101e3000811c21000000000091407800c9d1bf0042
:101e40008180fb000080fb00c808dd0000804000ae
:101e50008000eb00008fbe001e0078009e00900006
:101e6000e00f5000e08f580003003a0010002000ff
:101e700001002000008fbe001e0078001e029000ae
:101e80001e0178009e007800e011b90020a18800b2
:101e9000a3052000a005200083a2b9000008b80017
:101ea000020242004206200003002000010242001c
:101eb000840078007efc07000001be0010082000ae
:101ec000010020000202be001e0178009e01900069
:101ed0000402780024a28800800f5100818f5900ed
:101ee00008003e001e0178009e0190004051200035
:101ef000010020006efc07000000780020a388008d
:101f000002003700a000200020a38800a11c2100af
:101f10000000000091407800cbd1bf008180fb0021
:101f20000080fb00c808dd00008040008000eb005e
:101f3000008fbe001e0078009e009000e00f500051
:101f4000e08f580003003a0010002000010020003c
:101f5000008fbe001e0078001e0390001e01780056
:101f60009e007800e011b90082027800420620004d
:101f70000300200060a18800a4052000a005200027
:101f800084b2b9000008b800050242000102420014
:101f90008400780046fc0700420620000300200071
:101fa0001e039000000078001e0278009e0078005a
:101fb000e022b9008402780070a188005405200056
:101fc0005005200084b2b9000008b80005024200a4
:101fd000010242008400780035fc07004206200020
:101fe000030020001e039000000078001e0278000d
:101ff0009e007800e022b9008402780080a1880069
:10200000040520000005200084b2b9000008b800d3
:1020100005024200010242008400780024fc07000f
:10202000420620000300200065a180000002780025
:102030006128b80094a18800e002b9008402780009
:10204000a4052000a6052000848ab9000600b80077
:1020500005024200010242008400780014fc0700df
:10206000420620000300200075a1800000027800d5
:102070006128b80064a28800e003b90086027800f5
:10208000a4052000a6052000848ab9000600b80037
:1020900005024200010242008400780004fc0700af
:1020a000420620000300200085a180000002780085
:1020b0006128b80074a28800e002b90084027800a8
:1020c000a4052000a6052000848ab9000600b800f7
:1020d000050242000102420084007800f4fb070080
:1020e000a205200094a18000800178006120b80042
:1020f00083a28800828ab900e003b90086017800d3
:10210000a2052000030242000200b800420620009f
:10211000030020000102420084007800e4fb070075
:102120000001be0010082000010020000202be00d5
:102130001e0178009e0190000402780094a288009d
:10214000800f5100818f590008003e001e01780069
:102150009e0190004051200001002000d4fb0700a8
:102160000000780060a3880002003700a000200073
:1021700060a3880070a180008000eb00008fbe008b
:1021800010082000010020001e0178009e01900030
:10219000800f5100818f590008003e001e01780019
:1021a0009e0190004051200001002000c0fb07006c
:1021b0000000780070a3880002003700a000200013
:1021c00070a3880080a180008000eb00008fbe001b
:1021d00010082000010020001e0178009e019000e0
:1021e000800f5100818f590008003e001e017800c9
:1021f0009e0190004051200001002000acfb070030
:102200000000780080a3880002003700a0002000b2
:1022100080a3880090a180008000eb00008fbe00aa
:1022200010082000010020001e0178009e0190008f
:10223000800f5100818f590008003e001e01780078
:102240009e019000405120000100200098fb0700f3
:102250000000780090a3880002003700a000200052
:1022600090a38800c11c210000000000914078006c
:10227000cdd1bf008180fb000080fb00c808dd00dd
:10228000008040008000eb00008fbe001e00780040
:102290009e009000e00f5000e08f580003003a00cd
:1022a0001000200001002000008fbe001e007800fa
:1022b0001e0390001e0178009e007800e011b90016
:1022c000820278004206200003002000a0a18800be
:1022d000a4052000a005200084b2b9000008b800c1
:1022e00005024200010242008400780070fb0700f2
:1022f00042062000030020001e039000000078002a
:102300001e0278009e007800e022b9008402780066
:10231000b0a18800540520005005200084b2b90007
:102320000008b80005024200010242008400780063
:102330005ffb070042062000030020001e03900000
:10234000000078001e0278009e007800e022b900ac
:1023500084027800c0a18800040520000005200048
:1023600084b2b9000008b800050242000102420030
:10237000840078004efb0700420620000300200086
:10238000a5a18000000278006128b800d4a18800cf
:10239000e002b90084027800a4052000a605200010
:1023a000848ab9000600b80005024200010242001a
:1023b000840078003efb0700420620000300200056
:1023c000b5a18000000278006128b800a4a28800ae
:1023d000e003b90086027800a4052000a6052000cd
:1023e000848ab9000600b8000502420001024200da
:1023f000840078002efb0700420620000300200026
:10240000c5a18000000278006128b800b4a288004d
:10241000e002b90084027800a4052000a60520008f
:10242000848ab9000600b800050242000102420099
:10243000840078001efb0700a2052000d4a18000c4
:10244000800178006120b800c3a28800828ab900a8
:10245000e003b90086017800a205200003024200d3
:102460000200b800420620000300200001024200e2
:10247000840078000efb07000001be001008200059
:10248000010020000202be001e0178009e019000a3
:1024900004027800d4a28800800f5100818f590077
:1024a00008003e001e0178009e019000405120006f
:1024b00001002000fefa070000007800a0a38800b9
:1024c00002003700a0002000a0a38800b0a1800077
:1024d0008000eb00008fbe001008200001002000eb
:1024e0001e0178009e019000800f5100818f5900dd
:1024f00008003e001e0178009e019000405120001f
:1025000001002000eafa070000007800b0a388006c
:1025100002003700a0002000b0a38800c0a1800006
:102520008000eb00008fbe0010082000010020009a
:102530001e0178009e019000800f5100818f59008c
:1025400008003e001e0178009e01900040512000ce
:1025500001002000d6fa070000007800c0a3880020
:1025600002003700a0002000c0a38800d0a1800096
:102570008000eb00008fbe0010082000010020004a
:102580001e0178009e019000800f5100818f59003c
:1025900008003e001e0178009e019000405120007e
:1025a00001002000c2fa070000007800d0a38800d4
:1025b00002003700a0002000d0a38800e11c210009
:1025c0000000000091407800cfd1bf008180fb0067
:1025d0000080fb00c808dd00008040008000eb00a8
:1025e000008fbe001e0078009e009000e00f50009b
:1025f000e08f580003003a00100020000100200086
:10260000008fbe001e0078001e0390001e0178009f
:102610009e007800e011b900820278004206200096
:1026200003002000e0a18800a4052000a0052000f0
:1026300084b2b9000008b80005024200010242005d
:10264000840078009afa0700420620000300200068
:102650001e039000000078001e0278009e007800a3
:10266000e022b90084027800f0a18800540520001f
:102670005005200084b2b9000008b80005024200ed
:10268000010242008400780089fa07004206200017
:10269000030020001e039000000078001e02780056
:1026a0009e007800e022b9008402780000a2880031
:1026b000040520000005200084b2b9000008b8001d
:1026c00005024200010242008400780078fa070007
:1026d0004206200003002000e5a1800000027800ef
:1026e0006128b80014a28800e002b90084027800d2
:1026f000a4052000a6052000848ab9000600b800c1
:1027000005024200010242008400780068fa0700d6
:102710004206200003002000f5a18000000278009e
:102720006128b800e4a28800e003b90086027800be
:10273000a4052000a6052000848ab9000600b80080
:1027400005024200010242008400780058fa0700a6
:10275000420620000300200005a28000000278004d
:102760006128b800f4a28800e002b9008402780071
:10277000a4052000a6052000848ab9000600b80040
:1027800005024200010242008400780048fa070076
:10279000a205200014a28000800178006120b8000a
:1027a00003a38800828ab900e003b900860178009b
:1027b000a2052000030242000200b80042062000e9
:1027c00003002000010242008400780038fa07006c
:1027d0000001be0010082000010020000202be001f
:1027e0001e0178009e0190000402780014a3880066
:1027f000800f5100818f590008003e001e017800b3
:102800009e019000405120000100200028fa07009e
:1028100000007800e0a3880002003700a00020003c
:10282000e0a38800f0a180008000eb00008fbe00d4
:1028300010082000010020001e0178009e01900079
:10284000800f5100818f590008003e001e01780062
:102850009e019000405120000100200014fa070062
:1028600000007800f0a3880002003700a0002000dc
:10287000f0a3880000a280008000eb00008fbe0063
:1028800010082000010020001e0178009e01900029
:10289000800f5100818f590008003e001e01780012
:1028a0009e019000405120000100200000fa070026
:1028b0000000780000a4880002003700a00020007b
:1028c00000a4880010a280008000eb00008fbe00f2
:1028d00010082000010020001e0178009e019000d9
:1028e000800f5100818f590008003e001e017800c2
:1028f0009e0190004051200001002000ecf90700eb
:102900000000780010a4880002003700a00020001a
:1029100010a4880021a1800000ee2200808f5000ca
:102920000c003e0061a1800000ee2200808f50006c
:1029300008003e00a1a1800000ee2200808f500020
:1029400004003e00e1a1800000ee2200808f5000d4
:1029500001003600d835a80030c0b30091f4b700ac
:102960000f0337005e409000e24f50001f023a0014
:10297000811c21000000000091407800c9d1bf00f7
:102980008180fb000080fb00c808dd000080400063
:102990008000eb00008fbe001e0078009e009000bb
:1029a000e00f5000e08f580003003a0010002000b4
:1029b00001002000008fbe001e0078001e02900063
:1029c0001e0178009e007800e011b90020a1880067
:1029d000a3052000a005200083a2b9000008b800cc
:1029e00002024200420620000300200001024200d1
:1029f00084007800aef907000001be001008200036
:102a0000010020000202be001e0178009e0190001d
:102a10000402780024a28800800f5100818f5900a1
:102a200008003e001e0178009e01900040512000e9
:102a3000010020009ef907000000780020a3880014
:102a400002003700a000200020a38800a11c210064
:102a50000000000091407800cbd1bf008180fb00d6
:102a60000080fb00c808dd00008040008000eb0013
:102a7000008fbe001e0078009e009000e00f500006
:102a8000e08f580003003a001000200001002000f1
:102a9000008fbe001e0078001e0390001e0178000b
:102aa0009e007800e011b900820278004206200002
:102ab0000300200060a18800e4062000e00620005a
:102ac00084b2b9000008b8000502420001024200c9
:102ad0008400780076f907004206200003002000f9
:102ae0001e039000000078001e0278009e0078000f
:102af000e022b9008402780070a188003407200029
:102b00003007200084b2b9000008b8000502420076
:102b1000010242008400780065f9070042062000a7
:102b2000030020001e039000000078001e027800c1
:102b30009e007800e022b9008402780080a188001d
:102b4000840720008007200084b2b9000008b80084
:102b500005024200010242008400780054f9070097
:102b6000420620000300200065a1800000027800da
:102b70006128b80094a18800e002b90084027800be
:102b8000e4062000e6062000848ab9000600b800aa
:102b900005024200010242008400780044f9070067
:102ba000420620000300200075a18000000278008a
:102bb0006128b80064a28800e003b90086027800aa
:102bc000e4062000e6062000848ab9000600b8006a
:102bd00005024200010242008400780034f9070037
:102be000420620000300200085a18000000278003a
:102bf0006128b80074a28800e002b900840278005d
:102c0000e4062000e6062000848ab9000600b80029
:102c100005024200010242008400780024f9070006
:102c2000e206200094a18000800178006120b800b5
:102c300083a28800828ab900e003b9008601780087
:102c4000e2062000030242000200b8004206200013
:102c500003002000010242008400780014f90700fc
:102c60000001be0010082000010020000202be008a
:102c70001e0178009e0190000402780094a2880052
:102c8000800f5100818f590009003e001e0178001d
:102c90009e019000405120000100200004f907002f
:102ca000000078006a00400060a38800020037003e
:102cb0004001200060a3880070a180008000eb002c
:102cc000008fbe0010082000010020001e017800c7
:102cd0009e019000800f5100818f590009003e0035
:102ce0001e0178009e01900040512000010020004c
:102cf000eff80700000078006a00400070a3880029
:102d0000020037004001200070a3880080a18000ed
:102d10008000eb00008fbe001008200001002000a2
:102d20001e0178009e019000800f5100818f590094
:102d300009003e001e0178009e01900040512000d5
:102d400001002000daf80700000078006a00400067
:102d500080a38800020037004001200080a3880083
:102d600090a180008000eb00008fbe0010082000c2
:102d7000010020001e0178009e019000800f51008c
:102d8000818f590009003e001e0178009e019000cd
:102d90004051200001002000c5f807000000780025
:102da0006a00400090a38800020037004001200024
:102db00090a38800c11c2100000000009140780011
:102dc000cdd1bf008180fb000080fb00c808dd0082
:102dd000008040008000eb00008fbe001e007800e5
:102de0009e009000e00f5000e08f580003003a0072
:102df0001000200001002000008fbe001e0078009f
:102e00001e0390001e0178009e007800e011b900ba
:102e1000820278004206200003002000a0a1880062
:102e2000a4052000a005200084b2b9000008b80065
:102e30000502420001024200840078009cf807006d
:102e400042062000030020001e03900000007800ce
:102e50001e0278009e007800e022b900840278000b
:102e6000b0a18800540520005005200084b2b900ac
:102e70000008b80005024200010242008400780008
:102e80008bf8070042062000030020001e0390007c
:102e9000000078001e0278009e007800e022b90051
:102ea00084027800c0a188000405200000052000ed
:102eb00084b2b9000008b8000502420001024200d5
:102ec000840078007af80700420620000300200002
:102ed000a5a18000000278006128b800d4a1880074
:102ee000e002b90084027800a4052000a6052000b5
:102ef000848ab9000600b8000502420001024200bf
:102f0000840078006af807004206200003002000d1
:102f1000b5a18000000278006128b800a4a2880052
:102f2000e003b90086027800a4052000a605200071
:102f3000848ab9000600b80005024200010242007e
:102f4000840078005af807004206200003002000a1
:102f5000c5a18000000278006128b800b4a28800f2
:102f6000e002b90084027800a4052000a605200034
:102f7000848ab9000600b80005024200010242003e
:102f8000840078004af80700a2052000d4a1800040
:102f9000800178006120b800c3a28800828ab9004d
:102fa000e003b90086017800a20520000302420078
:102fb0000200b80042062000030020000102420087
:102fc000840078003af807000001be0010082000d5
:102fd000010020000202be001e0178009e01900048
:102fe00004027800d4a28800800f5100818f59001c
:102ff00008003e001e0178009e0190004051200014
:10300000010020002af8070000007800a0a3880033
:1030100002003700a0002000a0a38800b0a180001b
:103020008000eb00008fbe0010082000010020008f
:103030001e0178009e019000800f5100818f590081
:1030400008003e001e0178009e01900040512000c3
:103050000100200016f8070000007800b0a38800e7
:1030600002003700a0002000b0a38800c0a18000ab
:103070008000eb00008fbe0010082000010020003f
:103080001e0178009e019000800f5100818f590031
:1030900008003e001e0178009e0190004051200073
:1030a0000100200002f8070000007800c0a388009b
:1030b00002003700a0002000c0a38800d0a180003b
:1030c0008000eb00008fbe001008200001002000ef
:1030d0001e0178009e019000800f5100818f5900e1
:1030e00008003e001e0178009e0190004051200023
:1030f00001002000eef7070000007800d0a3880050
:1031000002003700a0002000d0a3880021a1800089
:1031100000ee2200808f50001c003e0061a1800064
:1031200000ee2200808f500018003e00a1a1800018
:1031300000ee2200808f500014003e0060a280004c
:10314000e10620006101b800e0062000819ab90084
:103150000010b800e013b900860278004206200093
:1031600003002000050242000102420084007800b2
:10317000cff70700a4a280000001be006120b800c4
:10318000800f5100818f590001003900d835a80007
:10319000d1a2800090a28000808f500003003600f2
:1031a00030c0b30091f4b700fd003700c1a2800029
:1031b00080a28000808f50000300360020c0b30042
:1031c00091f4b700f6003700b1a2800080a2800021
:1031d000808f50000300360010c0b30091f4b70098
:1031e000ef0037009174ef00ed0037005e40900073
:1031f000e34f5000ea003a00811c2100000000006b
:1032000091407800c9d1bf008180fb000080fb00a5
:10321000c808dd00008040008000eb00008fbe0089
:103220001e0078009e009000e00f5000e08f5800d4
:1032300003003a001000200001002000008fbe00b3
:103240001e0078001e0290001e0178009e0078008b
:10325000e011b90020a18800a3052000a0052000ee
:1032600083a2b9000008b800020242004206200012
:103270000300200001024200840078008cf7070060
:103280000001be0010082000010020000202be0064
:103290001e0178009e0190000402780024a288009c
:1032a000800f5100818f590008003e001e017800f8
:1032b0009e01900040512000010020007cf7070093
:1032c0000000780020a3880002003700a000200042
:1032d00020a38800a11c210000000000914078007c
:1032e000cbd1bf008180fb000080fb00c808dd005f
:1032f000008040008000eb00008fbe001e007800c0
:103300009e009000e00f5000e08f580003003a004c
:103310001000200001002000008fbe001e00780079
:103320001e0290001e0178009e007800e011b90096
:1033300060a18800a3052000a005200083a2b90099
:103340000008b800020242004206200003002000ec
:10335000010242008400780055f707000001be001a
:1033600010082000010020000202be001e017800ab
:103370009e0190000402780064a28800800f510032
:10338000818f590008003e001e0178009e019000c8
:10339000405120000100200045f7070000007800a0
:1033a00060a3880002003700a000200060a388000e
:1033b000c11c21000000000091407800cdd1bf0069
:1033c0008180fb000080fb00c808dd000080400019
:1033d0008000eb00008fbe001e0078009e00900071
:1033e000e00f5000e08f580003003a00100020006a
:1033f00001002000008fbe001e0078001e02900019
:103400001e0178009e007800e011b900a0a188009c
:10341000a3052000a005200083a2b9000008b80081
:103420000202420042062000030020000102420086
:10343000840078001ef707000001be00100820007d
:10344000010020000202be001e0178009e019000d3
:1034500004027800a4a28800800f5100818f5900d7
:1034600008003e001e0178009e019000405120009f
:10347000010020000ef7070000007800a0a38800dc
:1034800002003700a0002000a0a38800e11c21005a
:103490000000000091407800cfd1bf008180fb0088
:1034a0000080fb00c808dd00008040008000eb00c9
:1034b000008fbe001e0078009e009000e00f5000bc
:1034c000e08f580003003a001000200001002000a7
:1034d000008fbe001e0078001e0290001e017800c2
:1034e0009e007800e011b900e0a18800a30520004b
:1034f000a005200083a2b9000008b8000202420023
:1035000042062000030020000102420084007800ef
:10351000e7f607000001be001008200001002000af
:103520000202be001e0178009e0190000402780095
:10353000e4a28800800f5100818f590008003e00ee
:103540001e0178009e0190004051200001002000e3
:10355000d7f6070000007800e0a3880002003700db
:10356000a0002000e0a3880021a1800060a28000cc
:10357000808f50000800310061a18000a0a280006f
:10358000808f500004003100a1a18000e0a28000e3
:10359000808f500001003900d835a8009174ef00e9
:1035a0005e4090000004e00083003200011d210015
:1035b000000000009140780000ee2200121d210062
:1035c00000000000124178008181fb00211d2100d4
:1035d0000000000091407800c819dd000281fb0066
:1035e0008180fb00828141004809dd00311d2100fe
:1035f000000000009140780023a488008180fb0037
:103600008100410031a4880031a48000808f5000e7
:103610000200360000ee220030a48800821d210046
:10362000000000001241780040c6b300911d210047
:103630000000000091407800024278000349210018
:1036400084497800921d210000000000124178009a
:10365000e3c16000911d210000000000914078004e
:103660000342e8000281fb008180fb006c016100e5
:10367000c708de004291de008140780002417800f8
:10368000b31d21000000000093417800044378003e
:1036900035492100864a780083427800444a210057
:1036a000054a78008241780026492100034b7800c2
:1036b00081427800e4492100054a7800414a21000e
:1036c000000000009140780080cf500001003600db
:1036d000d835a800dcd1bf000080fb00ea00b900ab
:1036e00010a5880010a58000f30f500001003e00d7
:1036f000d835a8005e409000e14f500009003a0024
:10370000dad1bf000004e0000300350010c0b300b0
:103710009ff4b7002000370020c0b3009ff4b7002b
:103720001d0037005e409000e24f500015003a0047
:10373000dad1bf000004e0000900350030a48000a9
:103740000000e00003003a0030c0b3009ff4b7006f
:103750001100370040c0b3009ff4b7000e003700df
:1037600030a480000000e00003003a0050c0b30025
:103770009ff4b7000800370060c0b3009ff4b700a3
:10378000050037005e409000e34f500002003a0011
:1037900070c0b3009ff4b700211b2100000000009f
:1037a00091407800b4d1bf0001417800d649210092
:1037b000024b7800a1f4b7009fd4bf00e74f500040
:1037c00004003a0090d4bf000004e0000100320081
:1037d000d835a800a11d210000000000914078000c
:1037e000000720008180fb00008060004480de0034
:1037f00000407800a0f4b700a0d4bf00e14f500013
:103800007b003a00411d210000000000914078003b
:10381000d5d1bf008180fb000080fb00c808dd001f
:103820000080400050a4880050a48000e90f5000a0
:103830000400360051a48000c02b2000808f50006f
:1038400001003600d835a80051a480006005200092
:10385000808f50002b00360050a4800042ce200004
:10386000030020008000eb0023aea900e002b900b5
:1038700084027800d4bf2000d6bf2000848ab9001b
:103880000600b800050242000102420084007800f0
:1038900007f60700b43b20000001be00b03b20004b
:1038a000849ab9000010b800e013b90086027800cd
:1038b000823e200003002000050242000102420077
:1038c00084007800faf50700d3cc2c00823e20005b
:1038d0000000780060a4880060a48000f100b900b6
:1038e0000300b8004308de0070a4880070a48000c4
:1038f000820f50002d003600803e200070a488000a
:103900002a00370050a4800042ce2000030020008f
:103910008000eb0023aea800e002b900840278002a
:1039200094be250096be2500848ab9000600b80022
:10393000050242000102420084007800dcf5070025
:10394000b43b20000001be00b03b2000849ab900c7
:103950000010b800e013b90086027800823e200013
:1039600003002000050242000102420084007800aa
:10397000cff50700d3cc2c00823e20000000780059
:1039800060a4880060a48000f100b9000300b800c2
:103990004308de0070a4880070a48000820f5000ed
:1039a00002003600803e200070a48800611d2100c6
:1039b000000000009140780080bb20000181fb00e6
:1039c000711d210000000000914078004811dd00c9
:1039d0008180fb008100410041a4880041a4800057
:1039e000808f500006003600d835a800040037004c
:1039f0008a34ef008c34ef008e34ef008834ef000f
:103a0000a8d1bf00a11a2100000000009140780059
:103a100094f4b700abd1bf00814178005249210036
:103a200003497800c11a210000000000914078008d
:103a300096f4b700add1bf008142780074492100ef
:103a4000054a7800e11a210000000000914078004a
:103a500098f4b700afd1bf0001417800964921002a
:103a6000024b7800011b210000000000914078000b
:103a70009af4b700b8d1bf0001427800b3492100e1
:103a8000844978009cf4b7000080fa00000006002a
:103a90000200fa000000eb00000f7800070037007a
:103aa000404221009e004000804a21001e0040004c
:103ab0001e0fe800914078000148780000000000e7
:103ac0009e00780030082000808f5000f4ff360000
:103ad0000000eb00000f780007003700801e210077
:103ae0009e004000802e21001e0040001e0fe800b6
:103af0009140780001487800000000009e007800a6
:103b0000f00f2000808f5000f4ff36000080fa0094
:103b1000000006002000fa00889fbe008a9fbe00b9
:103b20008c9fbe00c1e5a800f08f2f00112e8000f1
:103b30000080600000a0a000102e8800122e8000df
:103b4000010e20000008200081006100808f5000dd
:103b5000faff3a00418b800012c0b30070ccb30072
:103b600002427800735c200084497800f20f28003c
:103b7000c6e5b70000602700232e800005f82f005f
:103b8000028161006407200002007000f2ff200043
:103b9000202e880003062100262e8000f0ff210041
:103ba00085026300f60f2e0005027200053020002a
:103bb000242e880007062000142e8000f8ff210024
:103bc00002016200f40f2e0002f0a0000930200074
:103bd000122e88004309dd000e26ef00f17f200041
:103be0006330880001016100c265a90003802f00d5
:103bf000c285a900fa4720001ce6a8000cfe2f0091
:103c0000f1308000fdff210000806000f10f2e00e8
:103c1000010f7800f0308800017020001107980033
:103c2000f0308000fb7f20000600600001802f0044
:103c30002107980000807200f147200031079800aa
:103c4000f0308800f10f2e0041079800f03080001e
:103c5000013020005107980000807300f57f20009c
:103c6000f030880001802f006107980028e6a90045
:103c7000f1472000710798005031800001fe2f00ad
:103c8000010f980008006000f17f2000110f9800dc
:103c90005031880001802f00210f980050318000a2
:103ca000f1472000310f980004006000f40f2e004f
:103cb000440f98000080740001302000510f9800dc
:103cc00050318800f47f2000640f980083c6a9005b
:103cd00001802f00710f9800a0220a0080060000ca
:103ce000f947200087c6a80008fe2f002134800075
:103cf000408b8000428b8000838060004300dd00a9
:103d0000810075000000e800213488008b0160000c
:103d100080338000c310dd000c0060008180e8006b
:103d20000010a0008580600080338800f7ff280025
:103d300070e6a8000600260034e6a900f58f2f00e3
:103d4000b0318000046020000d006000b0318800b8
:103d5000b03180001e017800020060001e0190005a
:103d600000007100b03188008bc6a900a0230a00b2
:103d7000880600008fc6a80060348000ae01900065
:103d8000030060003e019000000071006034880074
:103d900080338000ce019000030060005e0190003f
:103da000000071008033880071e6a80093c6a90066
:103db000a0210a009006000097c6a800a034800049
:103dc000ee01900003006000fe0090000080700093
:103dd000a034880091338000408b8000428b8000ab
:103de0008e099000838060004300dd003100b30045
:103df00063004000913388009e09900083006000ba
:103e000072e6a8004310dd009bc6a90064004000d4
:103e1000a0210a0098060000ee0890000100600052
:103e20009fc6a800e13480002e09900082806000c7
:103e3000be09900081807100e134880091338000d8
:103e40004e09900082806000de0990008180710040
:103e50009133880073e6a800a3c6a900a0200a0039
:103e6000a0060000a7c6a80020358000fe0890002c
:103e7000010060000080740020358800a0338000bd
:103e8000080060003000b300a033880074e6a8008a
:103e90003406a800de25a8007042800007006000fc
:103ea000000073007042880003e8a90023e8a8001e
:103eb000102e80000500600000007200102e8800a7
:103ec000122e8000010e2000000c200081006100f5
:103ed000808f5000faff3a004f06be004f05be002b
:103ee0004f04be000080fa00000006000000fa0047
:103ef0000116210000000000914078009fd4bf000f
:103f00008140e800814178000216210003497800d1
:103f10000004e00002003a00110007000e00370024
:103f20009fd4bf00e24f500002003e00190007007e
:103f3000090037009fd4bf00e64f500002003e004a
:103f400047030700040037009fd4bf00e74f50002d
:103f500001003a00050507000080fa000000060095
:103f60000000fa00015d210000000000914078008f
:103f700000cfb3000c74ef0000c060000d74ef00c0
:103f80000e74ef000f74ef00d0f5b7000080fa0058
:103f9000000006000000fa00881f780046d7bf0026
:103fa000e14f50003c023a00ced5bf006e76ef00e4
:103fb0006f4060004876ef000af4b7000ad4bf00f3
:103fc0000004e00002003a006e76ef0020003700a7
:103fd0000ad4bf000080fb00680060000000e00021
:103fe0000300320010c0b30048f6b70018003700d5
:103ff0000ad4bf000080fb00640060000000e00005
:104000000300320030c0b3006ef6b7001000370076
:104010000ad4bf000080fb00620060000000e000e6
:104020000300320020c0b3006ef6b700080037006e
:104030000ad4bf000080fb006100600000407800ef
:104040000004e0000200320010c0b3006ef6b700ba
:10405000e25c21000000000012417800a15b210019
:104060000000000091407800000320000141610041
:104070001149210000000000914078000281fb00fe
:1040800000006100a25d21000000000012417800e4
:10409000c481de00a1d4bf00834178000080fb0012
:1040a00081c0610002427800f366210084497800f3
:1040b000610060000141780026422100024b780037
:1040c0000000e0003e003a0022a1800021a2800012
:1040d00020a3800082a08800c1a0880080b388004f
:1040e0006ed6bf000004e00007003a0082a0800006
:1040f000c1a0800080b3800092a08800d1a0880079
:1041000090b38800db0137006ed6bf00e34f50004c
:10411000d8013e00e16621000000000091407800d7
:1041200022d4bf008180fb000080fb00c208dd00bc
:104130004242210000804000e166210000000000b2
:1041400091407800000040008180fb0002014000a7
:1041500022d4bf00c209dd000080fb0041422100e3
:1041600000804100e36621000000000093417800d8
:10417000700040008381fb000002400022d4bf0099
:10418000810042000080fb00421add004342210012
:10419000000042000002b0000000400003004000a8
:1041a00012017800910078000000000010007800f3
:1041b00092a08800d1a0880090b38800ad0137009c
:1041c000a1d4bf000080fb00700060000000e00090
:1041d000b800320022a1800021a2800020a380002c
:1041e00082a08800c1a0880080b388006ed6bf007e
:1041f0000004e00007003a0082a08000c1a0800017
:1042000080b3800092a08800d1a0880090b388007d
:10421000980137006ed6bf00e24f50002b003e00e1
:10422000e1662100000000009140780022d4bf0028
:104230008180fb000080fb00c208dd0042422100bb
:1042400000804000e16621000000000091407800fd
:10425000000040008180fb000201400022d4bf002a
:10426000c209dd000080fb004142210000804100c6
:10427000e3662100000000009341780070004000d8
:104280008381fb000002400022d4bf008100420075
:104290000080fb00421add00434221000000420082
:1042a0000002b0000000400003004000120178004e
:1042b00091007800000000001000780092a08800b3
:1042c000d1a0880090b388006a0137006ed6bf0085
:1042d000e34f500067013a00f16621000000000042
:1042e00091407800801e21000181fb00f1662100d1
:1042f0000000000091407800000041000181fb00b7
:10430000811e21000201e800810041001041780077
:1043100022d4bf000281fb00914078004811dd00eb
:104320008180fb008100410091a08800e14f500096
:1043300011003a0090a08000310720006101b80010
:1043400030072000819ab9000010b800e011b900d0
:10435000020242000102420084007800c909dd0027
:104360004700de0000807100c708de000000780012
:1043700090a088002700370022d4bf00e24f5000f1
:1043800011003a0090a08000d10620006101b80021
:10439000d0062000819ab9000010b800e011b900e1
:1043a000020242000102420084007800490add0056
:1043b0004700de0000007200c708de000000780041
:1043c00090a088001300370022d4bf00e34f5000b4
:1043d00010003a0090a08000610620006101b80042
:1043e00060062000819ab9000010b800e011b90001
:1043f000020242000102420084007800490bdd0005
:104400004700de0000007300c708de0000007800ef
:1044100090a0880090a08000310720006101b800c2
:1044200030072000819ab9000010b800e013b900ed
:104430008601780092a0800003024200010242003f
:1044400084007800c909dd004700de0000807100ab
:10445000c708de0000007800d0a088000200e0005d
:1044600003003a00401f200090b38800010137008c
:1044700091a0800010082000808f50000a003e00ac
:1044800090a080004151200000027800c208f8008e
:10449000c3e8a900050009008480d800c208f9001b
:1044a00090b38800f3003700a000200090b388008c
:1044b000f0003700a1d4bf000080fb007000600056
:1044c0000000e000eb003a00f1662100000000006f
:1044d00091407800801e21000181fb00f1662100df
:1044e00000000000914078000206b0008180fb00cf
:1044f000000041001206200001014100811e210040
:10450000010141009040780090a080008181fb0073
:104510008000eb00481add0092417800320720004d
:104520008381fb008289b90003024200e003b900e5
:104530008601780084a08800030141003407200030
:1045400083a080000400b8000101410082007800cf
:104550004909dd004700de0000007100c708de00e9
:1045600000007800c0a088000300e00003003a00cb
:10457000401f200080b388001000370081a0800019
:1045800010082000808f50000a003e0080a08000ac
:104590004151200080017800c208f800c3e8a9005a
:1045a000050009008380d800c208f90080b38800a4
:1045b00002003700a000200080b388006ed6bf0044
:1045c0000004e00007003a0082a08000c1a0800043
:1045d00080b3800092a08800d1a0880090b38800aa
:1045e000a40037006ed6bf00e34f500012003a001f
:1045f0006fd6bf00811e21000081fb006fd6bf0077
:10460000810041000081fb00801e21000201e800c2
:104610000000410091407800000000001040780048
:104620008180fb000080fb00c808dd0000804000a6
:1046300090a088002d0037006ed6bf00e24f5000da
:1046400014003a006fd6bf00811e21000081fb00dc
:104650006fd6bf000202b0000080fb008100410065
:104660001202200000014100801e210000004100d4
:104670009140780000000000104078008180fb002d
:104680000080fb00c808dd000080400090a088008a
:10469000160037006ed6bf00e14f500013003a00fd
:1046a0006fd6bf00811e21000081fb006fd6bf00c6
:1046b0000204b0000080fb008100410012042000d1
:1046c00000014100801e210000004100914078005f
:1046d00000000000104078008180fb000080fb009b
:1046e000c808dd000080400090a0880022d4bf00f0
:1046f000e14f500011003a0090a0800031072000e7
:104700006101b80030072000819ab9000010b8009c
:10471000e011b90002024200010242008400780068
:10472000490add004700de0000007200c708de0015
:104730000000780090a088002700370022d4bf0036
:10474000e24f500011003a0090a08000d1062000f6
:104750006101b800d0062000819ab9000010b800ad
:10476000e011b90002024200010242008400780018
:10477000490bdd004700de0000007300c708de00c3
:104780000000780090a088001300370022d4bf00fa
:10479000e34f500010003a0090a080006106200016
:1047a0006101b80060062000819ab9000010b800cd
:1047b000e011b900020242000102420084007800c8
:1047c0004909dd004700de0000007100c708de0077
:1047d0000000780090a0880090a0800031072000a1
:1047e0006101b80030072000819ab9000010b800bc
:1047f000e013b9008601780092a080000302420015
:104800000102420084007800c909dd004700de0093
:1048100000807100c708de0000007800d0a088008a
:104820000200e00003003a00401f200090b388001f
:104830001000370091a0800010082000808f5000e9
:104840000a003e0090a08000415120000002780044
:10485000c208f800c3e8a900050009008480d80058
:10486000c208f90090b3880002003700a0002000c1
:1048700090b3880048d6bf00e14f500006003a00d0
:104880000081eb008080eb00a000200092a0880057
:10489000d1a0880090b3880080ae800061006000e5
:1048a0000000e0000300320080a08000a0b3880078
:1048b00002003700c0a08000a0b3880080ae800056
:1048c000620060000000e0000300320090a0800061
:1048d000b0b3880002003700d0a08000b0b38800d9
:1048e000c0b380000000e00003003200c0b38000cd
:1048f0000000e900c0b38800d0b380000000e000f1
:1049000003003200d0b380000000e900d0b388007b
:10491000d0b380000000e00003003a00b0b3800094
:10492000e0b3880017003700a4d4bf000004e00003
:1049300003003a000080eb00e0b38800110037006c
:10494000b1b38000a4d4bf00610ab8000080fb00ae
:1049500042062000030020004006b0006103b900b9
:104960000620b80086acb90084bab900040444003b
:104970000104440088007800cdf1070000007800b1
:10498000e0b3880009d4bf00e14f500073003a0043
:104990000974ef0001a18000a0b38000808f500057
:1049a00015003900c0b380000000e00034003a0078
:1049b00021a4800000a18000808f500004003e00f0
:1049c0000cd4bf00004040000cf4b7002c003700ae
:1049d000c1402100000000009140780093d4bf0046
:1049e0008180fb000080fb000008dd0000407800b3
:1049f0000cf4b7002200370021a4800000a1800041
:104a0000808f500005003e000cd4bf0000404000e5
:104a10000040e8000cf4b70010003700c14021004e
:104a2000000000009140780093d4bf000181fb009a
:104a30008080fb0093d4bf008110dd000080fb006c
:104a400081407800120020000010dd000040780056
:104a500000c040000040e9000cf4b7009dd4bf0046
:104a60000080fb00640060000000e00004003200f1
:104a700090d4bf000080fb00ea00b900c0b38800fa
:104a800001a18000e0b38000808f50001200390047
:104a900021a4800000a18000808f500004003e000f
:104aa0000dd4bf00004040000df4b70023003700d4
:104ab000d1402100000000009140780093d4bf0055
:104ac0008180fb000080fb000008dd0000407800d2
:104ad0000df4b7001900370021a4800000a1800068
:104ae000808f500005003e000dd4bf000040400004
:104af0000040e8000df4b70010003700d14021005d
:104b0000000000009140780093d4bf000181fb00b9
:104b10008080fb0093d4bf008110dd000080fb008b
:104b200081407800120020000010dd000040780075
:104b300000c040000040e9000df4b70001a1800072
:104b4000b0b38000808f50000400310090d4bf00cb
:104b50000080fb00ea00b900d0b38800e19f80002c
:104b600080b38000808f50000d00360080c0eb00c5
:104b70009dd4bf0001417800c6402100024b78005f
:104b80000080fb00640060000000e00004003200d0
:104b900090d4bf000080fb00ea00b900c0b38800d9
:104ba000e1ba800090b38000808f500003003e0087
:104bb00048d6bf00e14f500008003a0080c0eb002b
:104bc00090d4bf0001427800d3402100844978008e
:104bd0000080fb00ea00b900d0b38800c14021008a
:104be000000000009140780093d4bf008180fb005a
:104bf0000080fb00120020000010dd000000e90032
:104c0000008060000000e00002003a00d015a9001a
:104c100001003700d015a800d1402100000000009d
:104c20009140780093d4bf008180fb000080fb009e
:104c3000120020000010dd000000e900008060008c
:104c40000000e00002003a00d035a9000100370062
:104c5000d035a8004f0478000080fa00000006005c
:104c60000000fa00881f780046d7bf00e14f5000cf
:104c700061003a00ced5bf006f4060000af4b70073
:104c80000ad4bf000080fb00680060000000e00064
:104c90000300320010c0b30048f6b700010037002f
:104ca0004876ef00e25c210000000000124178002d
:104cb000bad5bf00010320000041610091d4bf00bc
:104cc0000281fb008100610045422100c488de00b2
:104cd00044422100814078004342210000c060002e
:104ce000424221004742210022f4b70046422100ff
:104cf00021422100000000009140780022d4bf0032
:104d00008180fb000080fb00e480400074004000d4
:104d10008180400000004000858240000402400085
:104d200021422100000000009140780022d4bf0001
:104d30008180fb000080fb004102b0006800400061
:104d4000818040000000400083814000020140005b
:104d500021422100000000009140780022d4bf00d1
:104d60008180fb000080fb00f88040008002b000e2
:104d70008180400000004000878040000600400025
:104d800028a1800027a2800026a380009502780039
:104d900014027800930178001201780091007800e5
:104da0001000780088a08800c7a08800d6b28800cc
:104db00095a08800d4a08800e3b28800a2a0880053
:104dc000e1a08800f0b2880048d6bf00e14f500053
:104dd00009003a000081eb008080eb00a000200079
:104de0001234ef001a34ef005c36ef00a2a0880006
:104df000e1a08800f0b2880080ae80006100600011
:104e00000000e0000300320080a0800000b38800b2
:104e100002003700c0a0800000b3880080ae800090
:104e2000620060000000e00003003a0090a08000f3
:104e300010b3880002003700d0a0800010b38800b3
:104e400080ae8000640060000000e00003003200db
:104e5000a0a0800020b3880002003700e0a08000fe
:104e600020b3880030b380000000e000030032006f
:104e700030b380000000e90030b3880040b3800008
:104e80000000e0000300320040b380000000e900b1
:104e900040b3880050b380000000e00003003200ff
:104ea00050b380000000e90050b3880050b3800088
:104eb0000000e00003003a0020b3800060b38800e7
:104ec00017003700a4d4bf000004e00003003a003c
:104ed0000080eb0060b388001100370021b3800030
:104ee000a4d4bf00610ab8000080fb004206200085
:104ef000030020004006b0006103b9000620b8009e
:104f000086acb90084bab90004044400010444002a
:104f10008800780066f007000000780060b3880021
:104f200009d4bf00e14f5000a9003a000974ef0016
:104f300001a1800000b38000808f5000150039006f
:104f400030b380000000e00034003a0021a480006b
:104f500000a18000808f500004003e000cd4bf00f0
:104f6000004040000cf4b7002c003700c140210085
:104f7000000000009140780093d4bf008180fb00c6
:104f80000080fb000008dd00004078000cf4b70052
:104f90002200370021a4800000a18000808f5000f3
:104fa00005003e000cd4bf00004040000040e80077
:104fb0000cf4b70010003700c140210000000000d1
:104fc0009140780093d4bf000181fb008080fb00fa
:104fd00093d4bf008110dd000080fb008140780089
:104fe000120020000010dd000040780000c04000ea
:104ff0000040e9000cf4b7009dd4bf000080fb0026
:10500000640060000000e0000400320090d4bf00a3
:105010000080fb00ea00b90030b3880001a18000e5
:1050200010b38000808f50001600390021a480004a
:1050300000a18000808f500004003e000dd4bf000e
:10504000004040000df4b70009003700d1402100b6
:10505000000000009140780093d4bf008180fb00e5
:105060000080fb000008dd00004078000df4b70070
:1050700090d4bf000080fb00ea00b90040b3880074
:105080001c00370040b380000000e00019003a0027
:1050900021a4800000a18000808f500005003e0008
:1050a0000dd4bf00004040000040e8000df4b70000
:1050b00010003700d140210000000000914078002e
:1050c00093d4bf000181fb008080fb0093d4bf001c
:1050d0008110dd000080fb0081407800120020007c
:1050e0000010dd000040780000c040000040e900f2
:1050f0000df4b70001a1800060b38000808f5000e4
:105100001200390021a4800000a18000808f50008f
:1051100004003e000ed4bf00004040000ef4b70073
:1051200023003700e140210000000000914078009a
:1051300093d4bf008180fb000080fb000008dd00ed
:10514000004078000ef4b7001900370021a4800059
:1051500000a18000808f500005003e000ed4bf00eb
:10516000004040000040e8000ef4b7001000370097
:10517000e1402100000000009140780093d4bf007e
:105180000181fb008080fb0093d4bf008110dd0013
:105190000080fb0081407800120020000010dd003c
:1051a0000040780000c040000040e9000ef4b70065
:1051b00001a1800020b38000808f500004003100e6
:1051c00090d4bf000080fb00ea00b90050b3880013
:1051d000e19f8000d0b28000808f50000d0036002b
:1051e00080c0eb009dd4bf0081417800c240210007
:1051f000034978000080fb00640060000000e000cc
:105200000400320090d4bf000080fb00ea00b90027
:1052100030b3880048d6bf00e14f50000e003a007e
:1052200090d4bf0080c0eb000081fb0090d4bf0091
:10523000ea11b9000080fb000d74ef00ea00b9002c
:1052400042b3880081417800e240210003497800a0
:1052500050b3880015003700e1ba8000e0b280004a
:10526000808f50000500360040b380000000e00051
:1052700002003a0000c0eb000df4b700f1ba800064
:10528000f0b28000808f50000800360080c0eb0034
:1052900090d4bf0081417800e240210003497800aa
:1052a0000080fb00ea00b90050b38800c140210033
:1052b000000000009140780093d4bf008180fb0083
:1052c0000080fb00120020000010dd000000e9005b
:1052d000008060000000e00002003a00d015a90044
:1052e00001003700d015a800d140210000000000c7
:1052f0009140780093d4bf008180fb000080fb00c8
:10530000120020000010dd000000e90000806000b5
:105310000000e00002003a00d035a900010037008b
:10532000d035a800e1402100000000009140780045
:1053300093d4bf008180fb000080fb00120020009e
:105340000010dd000000e900008060000000e000c7
:1053500002003a00d055a90001003700d055a8003e
:105360004f0478000080fa00000006000000fa00f8
:10537000889fbe008a9fbe0046d7bf00e14f500005
:1053800018003a002ba180002aa2800029a38000e7
:1053900068a1800067a2800066a38000a5a18000ac
:1053a000a4a28000a3a38000e2a18000e1a280006b
:1053b000e0a380008ba08800caa0880059b28800b2
:1053c00098a08800d7a0880066b28800a5a08800b1
:1053d000e4a0880073b28800b2a08800f1a0880021
:1053e00080b2880080ae8000610060000000e000b4
:1053f0000300320080a0800090b2880002003700d5
:10540000c0a0800090b2880080ae80006200600082
:105410000000e0000300320090a08000a0b28800ed
:1054200002003700d0a08000a0b2880080ae8000cb
:10543000640060000000e00003003200a0a08000d3
:10544000b0b2880002003700e0a08000b0b288004f
:1054500080ae8000680060000000e00003003200c1
:10546000b0a08000c0b2880002003700f0a0800029
